:020000040000FA
:100000000C9462000C948A000C948A000C948A0070
:100010000C948A000C948A000C948A000C948A0038
:100020000C948A000C948A000C948A000C94B006FC
:100030000C948A000C948A000C948A000C948A0018
:100040000C940E060C948A000C947E060C945806B0
:100050000C948A000C948A000C948A000C948A00F8
:100060000C948A000C948A000000000024002700F1
:100070002A0000000000250028002B0000000008D6
:10008000000201000003040700000000000000005F
:1000900000000000230026002900040404040404D6
:1000A0000404020202020202030303030303010227
:1000B00004081020408001020408102001020408F6
:1000C0001020B10711241FBECFEFD8E0DEBFCDBF97
:1000D00011E0A0E0B1E0EEE2FAE102C005900D927D
:1000E000A434B107D9F722E0A4E4B1E001C01D9225
:1000F000A134B207E1F710E0C2E6D0E004C02197D6
:10010000FE010E940F0DC136D107C9F70E94730886
:100110000C94150D0C940000CF92DF92EF92FF9299
:10012000CF93DF93B0911702A0E08111AB2F8091A4
:10013000180290E0880F991FAC0140575F4FC090A4
:100140001D02D0901E02E0901F02F090200230E0CD
:1001500020E0FA01C591D491E881B90190E080E0F6
:10016000EB23EA130AC02F5F3F4F6C157D058E0508
:100170009F0578F36FEF7FEFCB01DF91CF91FF9079
:10018000EF90DF90CF900895833081F028F4813094
:1001900099F08230A9F008958730A9F08830C9F02D
:1001A0008430B1F4809180008F7D03C08091800005
:1001B0008F7780938000089584B58F7784BD0895EC
:1001C00084B58F7DFBCF8091B0008F778093B00096
:1001D00008958091B0008F7DF9CFCF93DF93282FC2
:1001E00030E0F901E458FF4F8491F901E255FF4FE7
:1001F000D491F901E656FF4FC491CC23A1F08111AF
:100200000E94C400EC2FF0E0EE0FFF1FE057FF4FFD
:10021000A591B491EC91ED2381E090E009F480E0A8
:10022000DF91CF91089580E090E0FACF1F93CF93B4
:10023000DF93282F30E0F901E458FF4F8491F90152
:10024000E255FF4FD491F901E656FF4FC491CC23FC
:10025000A9F0162F81110E94C400EC2FF0E0EE0FE0
:10026000FF1FEE58FF4FA591B4918FB7F894EC9112
:10027000111108C0D095DE23DC938FBFDF91CF91A1
:100280001F910895DE2BF8CFCF93DF9390E0FC0110
:10029000E255FF4F249186569F4FFC01849188239D
:1002A000C9F090E0880F991FFC01E859FF4FA59114
:1002B000B491FC01EE58FF4FC591D49161110DC06E
:1002C0009FB7F8948C91209582238C938881282362
:1002D00028839FBFDF91CF910895623051F49FB77B
:1002E000F8943C91822F809583238C93E8812E2B68
:1002F000EFCF8FB7F894EC912E2B2C938FBFEACFD2
:100300003FB7F8948091460190914701A091480130
:10031000B091490126B5A89B05C02F3F19F0019661
:10032000A11DB11D3FBFBA2FA92F982F8827BC014F
:10033000CD01620F711D811D911D42E0660F771F77
:10034000881F991F4A95D1F708958F929F92AF9277
:10035000BF92CF92DF92EF92FF924B015C010E941D
:1003600080016B017C010E9480016C197D098E095E
:100370009F09683E734081059105A8F321E0821A28
:100380009108A108B10888EEC80E83E0D81EE11CD0
:10039000F11C81149104A104B10429F7FF90EF909E
:1003A000DF90CF90BF90AF909F908F900895CF92A5
:1003B000DF92EF92FF920F931F93CF93DF93CDB70E
:1003C000DEB7C054D1400FB6F894DEBF0FBECDBF2C
:1003D0002FB7F89480914A0190914B01A0914C0164
:1003E000B0914D012FBF4091190250911A026091B6
:1003F0001B0270911C028C019D01041B150B260B26
:10040000370BB901A801403D57406105710590F4D3
:1004100080912102C05CDE4F0FB6F894DEBF0FBEA4
:10042000CDBFDF91CF911F910F91FF90EF90DF90A3
:10043000CF9008958093190290931A02A0931B0203
:10044000B0931C0210921402109213021092120226
:10045000109211021092100262E0809115020E9427
:10046000440161E070E080E090E00E94A50161E05D
:10047000809115020E94440160E0809115020E9463
:100480001601809116028551823020F58BE291E1B0
:100490000197F1F762E0809115020E94440180917A
:1004A000220290E08230910538F0880F991F880F62
:1004B000991F05970197F1F7F89480E00E948C004E
:1004C0006F3F7F4F8F4F9F4F61F4109221027894BE
:1004D00080E0A0CF64E170E080E090E00E94A501A0
:1004E000D9CF81E00E948C006F3F7F4F8F4F9F4F8D
:1004F00061F38E010F5F1F4F6E018FEBC81A8EEFF5
:10050000D80A780180E00E948C00F7016083718333
:100510008283938381E00E948C00F701648375835A
:1005200086839783F8E0EF0EF11CEC14FD0451F77D
:10053000789430E020E0F801C080D180E280F38040
:100540004481558166817781FFEFCF16DF06EF0684
:10055000FF0631F04F3F8FEF58076807780719F40F
:1005600010922102B5CFF90183E0F595E7958A95C0
:10057000E1F7E05FFD4F8081880FC416D506E606DF
:10058000F70610F180832F5F3F4F085F1F4F28321F
:10059000310589F6409114022091100280911102D8
:1005A000280F3327331F80911202280F311D8091AD
:1005B0001302820F932F911D99274817190681F670
:1005C00081E08093210226CF8160DCCFAF92BF9281
:1005D000CF92DF92EF92FF920F931F93CF93DF930F
:1005E0006C017B018B01040F151FEB015E01AE183E
:1005F000BF08C017D10759F06991D601ED91FC9160
:100600000190F081E02DC6010995892B79F7C5018C
:10061000DF91CF911F910F91FF90EF90DF90CF90DE
:10062000BF90AF900895FC01538D448D252F30E08D
:10063000842F90E0821B930B541710F0CF960895EF
:1006400001970895FC01918D828D981761F0A28D1C
:10065000AE0FBF2FB11D5D968C91928D9F5F9F73E2
:10066000928F90E008958FEF9FEF0895FC01918D98
:10067000828D981731F0828DE80FF11D858D90E005
:1006800008958FEF9FEF0895FC01918D228D892FA2
:1006900090E0805C9F4F821B91098F73992708958A
:1006A0008EE491E00E94440321E0892B09F420E0CC
:1006B000822F089580E090E0892B29F00E9450035A
:1006C00081110C9400000895FC01A48DA80FB92F8E
:1006D000B11DA35ABF4F2C91848D90E001968F736A
:1006E0009927848FA689B7892C93A089B1898C9189
:1006F000837080648C93938D848D981306C00288D8
:10070000F389E02D80818F7D80830895EF92FF92A1
:100710000F931F93CF93DF93EC0181E0888F9B8D24
:100720008C8D98131AC0E889F989808185FF15C0DE
:100730009FB7F894EE89FF896083E889F989808101
:100740008370806480839FBF81E090E0DF91CF91D0
:100750001F910F91FF90EF900895F62E0B8D10E0F2
:100760000F5F1F4F0F731127E02E8C8D8E110CC061
:100770000FB607FCFACFE889F989808185FFF5CFAC
:10078000CE010E946403F1CFEB8DEC0FFD2FF11D24
:10079000E35AFF4FF0829FB7F8940B8FEA89FB89E9
:1007A00080818062CFCFCF93DF93EC01888D882347
:1007B000B9F0AA89BB89E889F9898C9185FD03C0C4
:1007C000808186FD0DC00FB607FCF7CF8C9185FFA9
:1007D000F2CF808185FFEDCFCE010E946403E9CF87
:1007E000DF91CF9108958F929F92AF92BF92FF9227
:1007F0000F931F93CF93DF93FC01F0808BE08F1555
:1008000008F44AC0828108E512E0081B110987FD3F
:100810001395000F111F000F111F8181C8E8D0E050
:10082000C81BD10987FDD395CC0FDD1FCC0FDD1F71
:100830004E010D2E000CAA08BB089801012E000CD9
:10084000440B550B281939094A095B09DB010E9441
:100850000A0B24EB30E040E050E00E94E00A820EF8
:10086000931EA41EB51E8C169D062CF0E801801662
:1008700091060CF4E4012297CC0FDD1F2FB7F894FA
:100880008F2D90E0FC01EE0FFF1FE80FF91FE551DF
:10089000FE4FD283C1832FBFDF91CF911F910F9164
:1008A000FF90BF90AF909F908F9008951F93CF932C
:1008B000DF93EC01162F88818C3008F04EC061E088
:1008C000812F0E9444018881282F30E0F901EE0F2A
:1008D000FF1FE20FF31FE551FE4F1F736081607C25
:1008E000612B608319821A822CE0622F0E94030D13
:1008F000829FB001112430E020E0AB01420F531F72
:10090000FA01EE0FFF1FE40FF51FE551FE4F908136
:1009100096FD16C02F5F3F4F2C30310571F78111C6
:100920000FC01092800082E08093810010928500B9
:1009300010928400B19A80916F00826080936F0062
:10094000E8818E2F90E0FC01EE0FFF1FE80FF91FEA
:10095000E551FE4F8081806480838881DF91CF9153
:100960001F910895089590E080E00895FC010190A2
:100970000020E9F73197AF01481B590BBC0183E216
:1009800092E00C94E602CF93DF93EC0160E08E815D
:100990000E94160161E08E810E94160160E08E8146
:1009A0000E9416018BE891E00197F1F7DF91CF915A
:1009B0000895CF92DF92EF92FF920F931F93CF9300
:1009C000DF936C017C0187E0E80EF11CD0E0C0E011
:1009D000062F10E0B8010C2E02C0759567950A9499
:1009E000E2F76170F70181917F010E941601219663
:1009F000C430D10579F7C601DF91CF911F910F91D6
:100A0000FF90EF90DF90CF900C94C304CF92DF92D1
:100A1000EF92FF920F931F93CF93DF93EC01F62E8B
:100A2000642F8C810E9416018D818F3F19F060E048
:100A30000E9416010F2D10E08F8584FF25C06E01E6
:100A400087E0C80ED11CF12CE12CB8010E2C02C09D
:100A5000759567950A94E2F76170F60181916F01CF
:100A60000E941601FFEFEF1AFF0A88E0E816F10472
:100A700061F7CE01DF91CF911F910F91FF90EF9021
:100A8000DF90CF900C94C304B80184E0759567950E
:100A90008A95E1F7CE010E94D9046F2DCE01DF9136
:100AA000CF911F910F91FF90EF90DF90CF900C941A
:100AB000D90440E0682F83E292E00C94060581E0BF
:100AC0000E9459058BE39FE10197F1F70895CF93B9
:100AD000DF93823029F49091320298609093320231
:100AE000809336021092370280E48093380280E1CE
:100AF0008093390280E580933A0261E08091270279
:100B00000E944401809128028F3F19F061E00E9409
:100B1000440161E0809129020E944401C3E2D2E0D5
:100B20009E01235232408091320284FD0BC084E04A
:100B300090E021962817390744F461E08E810E94E5
:100B40004401EECF88E090E0F4CF8BE39DE0019785
:100B5000F1F760E0809127020E94160160E0809129
:100B600029020E941601809128028F3F19F060E04F
:100B70000E9416018091320284FD34C063E083E25A
:100B800092E00E94D904CBE4D6E4CE010197F1F7BC
:100B900063E083E292E00E94D9042197F1F763E0D9
:100BA00083E292E00E94D90483E592E00197F1F795
:100BB00062E083E292E00E94D90480913202806276
:100BC0000E94590584E0809333028CE00E9459050D
:100BD0000E945F0582E08093340286E0DF91CF912E
:100BE0000C94590580620E9459058BE496E40197A4
:100BF000F1F78091320280620E94590583E592E00C
:100C00000197F1F78091320280620E945905D5CF99
:100C100041E00E94060581E090E008951F920F9246
:100C20000FB60F9211242F933F938F939F93AF93FF
:100C3000BF9380914A0190914B01A0914C01B091DA
:100C40004D013091450123E0230F2D3758F50196D2
:100C5000A11DB11D2093450180934A0190934B0142
:100C6000A0934C01B0934D018091460190914701B2
:100C7000A0914801B09149010196A11DB11D809339
:100C8000460190934701A0934801B0934901BF9159
:100C9000AF919F918F913F912F910F900FBE0F9029
:100CA0001F90189526E8230F0296A11DB11DD2CFE3
:100CB0001F920F920FB60F9211242F933F934F93D1
:100CC0005F936F937F938F939F93AF93BF93EF93B4
:100CD000FF938EE491E00E946403FF91EF91BF9136
:100CE000AF919F918F917F916F915F914F913F91C4
:100CF0002F910F900FBE0F901F9018951F920F927B
:100D00000FB60F9211242F938F939F93EF93FF931E
:100D1000E0915E01F0915F018081E0916401F091CA
:100D2000650182FD1BC09081809167018F5F8F7389
:100D300020916801821741F0E0916701F0E0E25BE9
:100D4000FE4F958F80936701FF91EF919F918F9157
:100D50002F910F900FBE0F901F9018958081F4CFA8
:100D60001F920F920FB60F9211242F933F934F9320
:100D70005F936F937F938F939F93AF93BF93CF9323
:100D8000DF93EF93FF9380914401C0910F02D0E075
:100D900087FF24C010928500109284008091440146
:100DA0008F5F8093440180914401082E000C990BC1
:100DB0008C179D0724F4809144018C30C4F18091FC
:100DC000840090918500049680349C4908F47AC090
:100DD0008091840090918500049676C080914401B2
:100DE000082E000C990B8C179D07C4F6E091440166
:100DF0008E2FEE0F990BFC01EE0FFF1FE80FF91F6E
:100E0000E551FE4F808186FFC9CFE09144018E2FCE
:100E1000EE0F990BFC01EE0FFF1FE80FF91FE551D4
:100E2000FE4F808160E08F730E941601B7CF209142
:100E3000840030918500E09144018E2FEE0F990BD4
:100E4000FC01EE0FFF1FE80FF91FE551FE4F8181F6
:100E50009281820F931F9093890080938800E09184
:100E600044018E2FEE0F990BFC01EE0FFF1FE80FD0
:100E7000F91FE551FE4F808186FF11C0E0914401CA
:100E80008E2FEE0F990BFC01EE0FFF1FE80FF91FDD
:100E9000E551FE4F808161E08F730E941601FF9142
:100EA000EF91DF91CF91BF91AF919F918F917F9102
:100EB0006F915F914F913F912F910F900FBE0F90C7
:100EC0001F90189580E49CE9909389008093880096
:100ED0008FEF80934401E3CFCF92DF92EF92FF92A6
:100EE0000F931F93E82FF92F05C001501109210915
:100EF000310961F1908196239417B9F305C001502F
:100F000011092109310911F1908196239413F7CF2A
:100F1000C12CD12CE12CF12C0AC08FEFC81AD80AB1
:100F2000E80AF80A0C151D052E053F0579F08081A9
:100F30008623841791F36C2D7D2D8E2D9F2D1F916F
:100F40000F91FF90EF90DF90CF90089560E070E0F8
:100F500080E090E01F910F91FF90EF90DF90CF9095
:100F60000895CF93109251011092500188EE93E0B2
:100F7000A0E0B0E08093520190935301A0935401FC
:100F8000B093550184E291E090934F0180934E011C
:100F900085EC90E090935B0180935A0184EC90E0A3
:100FA00090935D0180935C0180EC90E090935F01F1
:100FB00080935E0181EC90E09093610180936001E9
:100FC00082EC90E0909363018093620186EC90E064
:100FD00090936501809364011092670110926801FB
:100FE0001092690110926A0180910F028C3008F012
:100FF00072C091E0980F90930F0280933E0290E0B0
:10100000FC01EE0FFF1FE80FF91FE551FE4F88EBC3
:101010009BE09283818380910F028C3008F05FC047
:1010200091E0980F90930F0280933B0290E0FC01B7
:10103000EE0FFF1FE80FF91FE551FE4F88EB9BE015
:1010400092838183109226021092250286E391E01A
:1010500090932402809323028CE0809327028FEFE9
:1010600080932802CBE0C093290285E080932A0276
:1010700084E080932B0283E080932C0282E08093B3
:101080002D0210922E0210922F0210923002109216
:1010900031021092320281E00E9467058EE0809357
:1010A0001502C0931602ECEBF0E0E491E093170216
:1010B000E8EAF0E0E491E093180280E89EE3A0E023
:1010C000B0E080931D0290931E02A0931F02B09384
:1010D0002002CF9108958FEF80933E029CCF8FEF37
:1010E00080933B02AFCF789484B5826084BD84B591
:1010F000816084BD85B5826085BD85B5816085BD13
:1011000080916E00816080936E00109281008091CA
:101110008100826080938100809181008160809352
:101120008100809180008160809380008091B10077
:1011300084608093B1008091B00081608093B000A2
:1011400080917A00846080937A0080917A00826036
:1011500080937A0080917A00816080937A008091F8
:101160007A00806880937A001092C10062E080E18A
:101170000E94440160E08FE00E94440161E081E14F
:101180000E94440161E082E10E94440161E083E148
:101190000E94440168E070E08EE392E00E945604F1
:1011A00061E087E00E94440160E086E00E94440123
:1011B00082E00E94670562E0809115020E9444016E
:1011C0002FB7F89480914A0190914B01A0914C0166
:1011D000B0914D012FBF805D9740A109B109809367
:1011E000190290931A02A0931B02B0931C0287E38A
:1011F00080932202E0915E01F0915F0182E08083A2
:10120000E0915A01F0915B011082E0915C01F09154
:101210005D018FEC808310926601E0916201F09194
:10122000630186E08083E0916001F091610180813B
:1012300080618083E0916001F0916101808188602C
:101240008083E0916001F0916101808180688083FA
:10125000E0916001F091610180818F7D808369E080
:1012600070E08BE392E00E94560460E08AE00E9406
:10127000440123E0E22EF12C33E2C32ED12C40EACC
:10128000842E40E0942E5AE0752E60E0A62E60E099
:10129000B62E7FED672E80E10E94ED008C018FE07D
:1012A0000E94ED00EC010130110519F0019709F0E1
:1012B00051C061E083E10E94160161E00130110537
:1012C00009F060E082E10E94160161E0219709F0D7
:1012D00060E081E10E94160160E087E00E94160153
:1012E000C7010197F1F761E087E00E941601C6018E
:1012F0000197F1F760E087E00E941601E4EBF0E06F
:101300006491F4018491E82FF0E0EE0FFF1FE057A5
:10131000FF4F8591949100E412E42FE030E0462FD6
:101320000E946C0768E270E08EE392E00E94F30393
:101330000E94D701882349F0809116028B3028F053
:101340008D3068F085518230D0F160E070E080EC43
:101350009FE721C060E083E10E941601B2CF609157
:10136000110270E090E080E00E94E10B2DEC3CEC7B
:101370004CEC5DE30E946D0C1B012C01609110028E
:1013800070E090E080E00E94E10B9B01AC01C201A3
:10139000B1010E94440B0E94B00BC62F0E94D701DE
:1013A000882341F0809116028C3009F497C0C8F46C
:1013B0008B3081F160E070E080EC9FE753C060917A
:1013C00010027091110276276727762790E080E05F
:1013D0000E94DF0B2DEC3CEC4CEC5DE30E946D0CAD
:1013E000DACF8551823030F7D09112026D2F70E044
:1013F000762F662766277F7780911302682B90E00F
:1014000080E00E94DF0B2DEC3CEC4CEC5DE30E9495
:101410006D0C80C06091120270E090E080E00E944C
:10142000DF0B1B012C01D0911302D7FF0AC0AC01C6
:101430009B0160E070E080E89FEB0E94430B1B0182
:101440002C01DF706D2F70E090E080E00E94E10BD6
:101450002DEC3CEC4CEC5DE30E946D0CA201910183
:101460000E94440B0E94B00BD62F6C2F70E090E0CE
:1014700080E00E94DF0B9B01AC010E94DA0C81111D
:101480000DC06D2F70E090E080E00E94DF0B9B01AB
:10149000AC010E94DA0C882309F440C00E945F0569
:1014A000E1E0809136028111E0E0E195F0E0ED5D50
:1014B000FD4F84898B5F80680E9459058EE391E01F
:1014C0000E94B604A114B10409F4E5CE0E945003B1
:1014D000882309F4E0CE0E940000DDCED0911202F4
:1014E0006D2F70E090E080E00E94DF0B1B012C016B
:1014F000609113026F7070E090E080E00E94E10B59
:101500002DEC3CEC4CEC5DE30E946D0CA2019101D2
:101510000E94440BD7FFA6CF9058A4CF8D2F672DE4
:101520000E94030D805D80931701905D90931801D8
:1015300060921B018C2F0E94030D805D8093070138
:10154000905D90930801E1E0809136028111E0E026
:10155000E195F0E0ED5DFD4F848980680E945905BA
:1015600080E191E00E94B604E0913602E23030F56D
:10157000E150F0E0ED5DFD4F848980680E945905DF
:1015800080E091E00E94B60464EF71E080E090E0BA
:101590000E94A5010E945F058AE00E94ED0064EBB5
:1015A00070E08130910529F0892B09F08BCF70E034
:1015B00060E08BE392E00E94F30384CFE1E0D9CFB7
:1015C000052E97FB1EF400940E94F70A57FD07D0E2
:1015D0000E94120B07FC03D04EF40C94F70A5095AE
:1015E0004095309521953F4F4F4F5F4F089590950F
:1015F0008095709561957F4F8F4F9F4F08950E9402
:10160000340BA59F900DB49F900DA49F800D911D4C
:1016100011240895B7FF0C94FF0A0E94FF0A821B51
:10162000930B0895A1E21A2EAA1BBB1BFD010DC04E
:10163000AA1FBB1FEE1FFF1FA217B307E407F50782
:1016400020F0A21BB30BE40BF50B661F771F881F5E
:10165000991F1A9469F760957095809590959B01F4
:10166000AC01BD01CF010895A29FB001B39FC0019D
:10167000A39F700D811D1124911DB29F700D811DBE
:101680001124911D08955058BB27AA270E945B0B77
:101690000C94330C0E94250C38F00E942C0C20F086
:1016A00039F49F3F19F426F40C94220C0EF4E095C3
:1016B000E7FB0C941C0CE92F0E94440C58F3BA175A
:1016C000620773078407950720F079F4A6F50C9458
:1016D000660C0EF4E0950B2EBA2FA02D0B01B9016C
:1016E00090010C01CA01A0011124FF27591B99F098
:1016F000593F50F4503E68F11A16F040A22F232FA4
:10170000342F4427585FF3CF469537952795A795F3
:10171000F0405395C9F77EF41F16BA0B620B730B9A
:10172000840BBAF09150A1F0FF0FBB1F661F771F0B
:10173000881FC2F70EC0BA0F621F731F841F48F4C0
:10174000879577956795B795F7959E3F08F0B0CF49
:101750009395880F08F09927EE0F97958795089530
:101760000E944C0C88F09F5798F0B92F9927B751D9
:10177000B0F0E1F0660F771F881F991F1AF0BA9535
:10178000C9F714C0B13091F00E94660CB1E0089521
:101790000C94660C672F782F8827B85F39F0B93F13
:1017A000CCF3869577956795B395D9F73EF49095E8
:1017B0008095709561957F4F8F4F9F4F0895E89466
:1017C00009C097FB3EF490958095709561957F4F89
:1017D0008F4F9F4F9923A9F0F92F96E9BB27939537
:1017E000F695879577956795B795F111F8CFFAF447
:1017F000BB0F11F460FF1BC06F5F7F4F8F4F9F4F78
:1018000016C0882311F096E911C0772321F09EE8D5
:10181000872F762F05C0662371F096E8862F70E03B
:1018200060E02AF09A95660F771F881FDAF7880F15
:101830009695879597F9089597F99F6780E870E0E6
:1018400060E008959FEF80EC089500240A94161636
:10185000170618060906089500240A94121613069E
:10186000140605060895092E0394000C11F488232C
:1018700052F0BB0F40F4BF2B11F460FF04C06F5F48
:101880007F4F8F4F9F4F089557FD9058440F551F1E
:1018900059F05F3F71F04795880F97FB991F61F0F2
:1018A0009F3F79F087950895121613061406551F69
:1018B000F2CF4695F1DF08C0161617061806991FD5
:1018C000F1CF86957105610508940895E894BB27CA
:1018D00066277727CB0197F908950E94800C0C9416
:1018E000330C0E94250C38F00E942C0C20F095231C
:1018F00011F00C941C0C0C94220C11240C94670C09
:101900000E94440C70F3959FC1F3950F50E0551F52
:10191000629FF001729FBB27F00DB11D639FAA2744
:10192000F00DB11DAA1F649F6627B00DA11D661F93
:10193000829F2227B00DA11D621F739FB00DA11DB4
:10194000621F839FA00D611D221F749F3327A00D6E
:10195000611D231F849F600D211D822F762F6A2F0A
:1019600011249F5750409AF0F1F088234AF0EE0F6F
:10197000FF1FBB1F661F771F881F91505040A9F79C
:101980009E3F510580F00C941C0C0C94670C5F3F3B
:10199000E4F3983ED4F3869577956795B795F795D8
:1019A000E7959F5FC1F7FE2B880F911D9695879550
:1019B00097F908950E94DF0C880B990B0895990FF1
:1019C0000008550FAA0BE0E8FEEF16161706E80709
:1019D000F907C0F012161306E407F50798F0621B2A
:1019E000730B840B950B39F40A2661F0232B242BFF
:1019F000252B21F408950A2609F4A140A6958FEF1E
:101A0000811D811D0895991B79E004C0991F9617C7
:101A100008F0961B881F7A95C9F780950895EE0FF8
:101A2000FF1F0590F491E02D0994F894FFCF5248E0
:101A30002020203D2030302E3020252020005465ED
:101A40006D70203D2030302E3020432020000000DB
:101A500000008603E6021303D30344032203360384
:101A6000000000000806E602B304B2044572726F7B
:021A7000720002
:107E0000112484B714BE81FFF0D085E080938100F7
:107E100082E08093C00088E18093C10086E0809377
:107E2000C20080E18093C4008EE0C9D0259A86E02C
:107E300020E33CEF91E0309385002093840096BBD3
:107E4000B09BFECF1D9AA8958150A9F7CC24DD24C4
:107E500088248394B5E0AB2EA1E19A2EF3E0BF2EE7
:107E6000A2D0813461F49FD0082FAFD0023811F036
:107E7000013811F484E001C083E08DD089C08234E0
:107E800011F484E103C0853419F485E0A6D080C0E4
:107E9000853579F488D0E82EFF2485D0082F10E0AE
:107EA000102F00270E291F29000F111F8ED06801E7
:107EB0006FC0863521F484E090D080E0DECF843638
:107EC00009F040C070D06FD0082F6DD080E0C81688
:107ED00080E7D80618F4F601B7BEE895C0E0D1E017
:107EE00062D089930C17E1F7F0E0CF16F0E7DF06D8
:107EF00018F0F601B7BEE89568D007B600FCFDCFD4
:107F0000A601A0E0B1E02C9130E011968C91119780
:107F100090E0982F8827822B932B1296FA010C0160
:107F200087BEE89511244E5F5F4FF1E0A038BF0790
:107F300051F7F601A7BEE89507B600FCFDCF97BE46
:107F4000E89526C08437B1F42ED02DD0F82E2BD052
:107F50003CD0F601EF2C8F010F5F1F4F84911BD097
:107F6000EA94F801C1F70894C11CD11CFA94CF0C13
:107F7000D11C0EC0853739F428D08EE10CD085E9AC
:107F80000AD08FE07ACF813511F488E018D01DD067
:107F900080E101D065CF982F8091C00085FFFCCF94
:107FA0009093C60008958091C00087FFFCCF809118
:107FB000C00084FD01C0A8958091C6000895E0E648
:107FC000F0E098E1908380830895EDDF803219F02E
:107FD00088E0F5DFFFCF84E1DECF1F93182FE3DFCA
:107FE0001150E9F7F2DF1F91089580E0E8DFEE27F6
:047FF000FF270994CA
:027FFE00040479
:00000001FF
